:100000000C94D1000C94F9000C94F9000C94F900B4
:100010000C94F9000C94F9000C94F9000C94F9007C
:100020000C94F9000C94F9000C9458070C94C70731
:100030000C94F9000C94F9000C94F9000C94F9005C
:100040000C94F9000C94F9000C94F9000C94F9004C
:100050000C94F9000C94F9000C94F9000C94F90933
:100060000C94F9000C94F9000C94F9000C94F9002C
:100070000C94F9000C94F9000C94F9000C94F9001C
:100080000C94F9000C94F9000C94F9000C94F9000C
:100090000C94F9000C94F9000C94F9000C94F900FC
:1000A0000C94F9000C94F9000C94F900080B000270
:1000B0000202000009040000010202000005240001
:1000C0001001052401010104240206052406000193
:1000D0000705810310004009040100020A00000026
:1000E00007050202400000070583024000000403E8
:1000F000090412010002EF02014066666706000172
:1001000001020301526574726F5553424A6F79734D
:100110007469636B00526574726F5553424A6F790C
:10012000737469636B0000000000240027002A003C
:100130002D00300000000000250028002B002E00BC
:10014000310004040404040304050202020204034F
:100150000202020206060606060604040202020461
:1001600004040802011040804010204080408008B4
:100170000204018040201002011080102040402025
:100180000000000200090F0000030401000C000041
:10019000000000000000000000000000000000005F
:1001A000430A11241FBECFEFDAE0DEBFCDBF11E05E
:1001B000A0E0B1E0E8E3FEE102C005900D92A833B3
:1001C000B107D9F722E0A8E3B1E001C01D92A83140
:1001D000B207E1F710E0C1EDD0E004C02197FE01C5
:1001E0000E94D20DC03DD107C9F70E94E40B0C94C8
:1001F0001A0F0C940000CF92DF92EF92FF920F93B0
:100200001F93CF93DF93D901E8016A01F9014217E7
:10021000530714F06901FA01882309F440C0CB01A7
:100220006C157D050CF4C6019F018E179F070CF419
:100230009C01A417B50734F4CF01821B930B9C01DA
:100240002C0D3D1D0D2C000CEE08FF08032E000C9C
:10025000440B550B2C193D094E095F09AEEFBFEF5A
:100260000E94820D9F01FF0F440B550B2C193D0975
:100270004E095F090E94630DDA01C9018F5F9F4734
:10028000A109B1098883998382E090E0DF91CF9141
:100290001F910F91FF90EF90DF90CF90089590E025
:1002A00080E0F4CFE1E9F1E02491E2E7F1E034917C
:1002B000E3E5F1E09491992309F430C02223E9F0B9
:1002C00021502F30D0F4E22FF0E0E759FE4F0C948C
:1002D000D20D97019B0178018F0193017D017D0172
:1002E0007D019E01A401A801AC01B2017D01B6010E
:1002F000209180002F7720938000E92FF0E0EE0F0F
:10030000FF1FEC5CFE4FA591B4919FB7F894EC9160
:10031000811132C030953E233C939FBF08952091B8
:1003200080002F7DE8CF20918000277FE4CF24B587
:100330002F7724BDE2CF24B52F7DFBCF20919000F5
:100340002F7720939000D9CF209190002F7DF9CF67
:1003500020919000277FF5CF2091C0002F77209328
:10036000C000CBCF2091C0002F7DF9CF2091C200DB
:10037000277F2093C200C1CF3E2BCECFFC018091BE
:100380006F01882311F13FB7F89482E08093E90070
:100390002091F200822F90E01816190614F481E0E3
:1003A00090E0882339F0289844E640936E0140910C
:1003B000F1004083222339F02091F200211103C083
:1003C0002BE62093E8003FBF08958FEF9FEF08953D
:1003D000CF93DF931F92CDB7DEB76983DC01ED9138
:1003E000FC910280F381E02D41E050E0BE016F5F9F
:1003F0007F4F09950F90DF91CF91089583E080930F
:10040000E9008091F200882319F08AE38093E800E4
:100410000895CF93DF931F92CDB7DEB7FC0184859B
:10042000958597FD08C02FEF3FEF358724870F9004
:10043000DF91CF910895CE0101960E94BE010197F0
:1004400019F4898190E0F3CF8FEF9FEFF0CF0F93F6
:100450001F93CF93DF931F92CDB7DEB78C01FC01C2
:100460008485958597FF0BC0CE0101960E94BE0141
:10047000019771F4898190E0F80195878487F801EC
:10048000848595850F90DF91CF911F910F910895ED
:100490008FEF9FEFF1CFFC018485958597FD0BC011
:1004A0009FB7F89482E08093E9008091F2009FBFAB
:1004B00090E0019608959FB7F89482E08093E90058
:1004C0008091F2009FBF90E00895409168015091A3
:1004D0006901209166013091670142175307B4F416
:1004E0009091E8009570E1F39091E80092FD19C0B9
:1004F0008093F100809168019091690101968F735A
:100500009927892B19F48EEF8093E8008091680178
:10051000909169010196909369018093680181E04F
:10052000089580E00895EF92FF920F931F93CF9369
:10053000DF93F82E192FE62E042F81E0860F880F07
:100540000E94650283E00E946502CF2DD12FEC0E40
:10055000FD2EF11CCE15DF05B9F007FF13C0FE011B
:1005600084910E946502182F80E00E946502812319
:1005700021968111EFCFDF91CF911F910F91FF90C5
:10058000EF9008958881EDCF81E0F5CFDF92EF9273
:10059000FF920F931F93CF93DF93D82E8A01EB0125
:1005A0007B01E40EF51ECE15DF0559F0D7FE12C013
:1005B000FE0184910E94650221968111F4CF0FEF14
:1005C0001FEFC801DF91CF911F910F91FF90EF9026
:1005D000DF9008958881EECF2FB7F89487708093CD
:1005E000E9009091E800892F807295FF04C09091F6
:1005F000F20080E4891B2FBF089583E00E94EC0283
:1006000090E00895615030F02091F100FC012083CA
:100610000196F8CF289884E680936E010895809122
:100620005E0181110DC082E080935A0184E08093C5
:100630005B0110925D0110925C0181E080935E018C
:100640008AE591E008950F931F93CF93DF931F9254
:10065000CDB7DEB782E0898342E450E06CEA70E017
:1006600080E80E94C6020E940F03DC0112960D91E1
:100670001C910115110589F0D801ED91FC910280C2
:10068000F381E02DBE016F5F7F4FC801099597FD93
:1006900004C0F80100851185ECCF89810F90DF91AE
:1006A000CF911F910F9108953FB7F8948091560113
:1006B00090915701A0915801B091590126B5A89B7E
:1006C00005C02F3F19F00196A11DB11D3FBFBA2FE4
:1006D000A92F982F8827BC01CD01620F711D811DA4
:1006E000911D42E0660F771F881F991F4A95D1F729
:1006F0000895CF92DF92EF92FF920E9454036B0114
:100700007C010E9454036C197D098E099F09683E83
:10071000734081059105A8F3FF90EF90DF90CF9093
:1007200008957F928F929F92AF92BF92CF92DF9265
:10073000EF92FF920F931F93CF93DF93C82E8B01FD
:100740007A0180916F01811110C08FEF9FEFDF91CF
:10075000CF911F910F91FF90EF90DF90CF90BF90BE
:10076000AF909F908F907F90089580916C0180FF53
:1007700005C08091E00082608093E000CE2DDF2DE7
:10078000D12C8AEFB82E8C2D8770982E8C2D8072EC
:10079000882E8C2D8074782E9AE3A92E209719F438
:1007A000DD2009F44EC08C2D0E94EC02811106C0A0
:1007B000BA94BB2051F20E947903F0CF8C171D062A
:1007C00011F00CF08C2F9FB7F8949092E9002091D3
:1007D000E80025FD02C09FBFE1CF282F30E0C21BFB
:1007E000D30B882029F08150A0F01092F100FBCFAC
:1007F000F801C7FC0AC0815050F041914093F100CC
:10080000FACF44914093F10031968150D0F7020F16
:10081000131FDD2021F0A092E800D12CDCCF8091C5
:10082000E80085FD07C0A092E800DD24D39420975E
:1008300091F2F3CF209779F6772069F2A092E80041
:10084000CACF5D9884E680936B01C70180CFCF93B8
:10085000DF93EC0180911201882331F083E00E9444
:1008600091031816190634F081E090E09B838A8387
:1008700080E090E0DF91CF910895DC01FB011296BA
:100880002C911297848195812817190641F4918142
:100890008081813A31F49D7F81E0913009F080E0E0
:1008A00008958132E1F79B3029F482811F968C9361
:1008B00081E008959A3099F7828150968C93F8CF11
:1008C000DC01FB0188E4808389E4818384E4828302
:1008D0001D969C911D979F709F5B93831D968D9194
:1008E0009C9124E0969587952A95E1F78F708F5B10
:1008F000848385E00895EF92FF920F931F93CF9327
:10090000DF93FB012081213889F52381223271F5A3
:10091000DC0112964C91248135814217130631F582
:100920008C01FC01C385D485F12CE12C209791F03A
:100930004C815D816A817B818E81811180E80E947A
:10094000C6028F3F980759F0E80EF91E0990D8812A
:10095000C02DECCF81E0D8011F968C93C701DF91A9
:10096000CF911F910F91FF90EF90089590E080E05C
:10097000F6CFCF93DF93CDB7DEB769970FB6F89474
:10098000DEBF0FBECDBFFC01DB018C918F5F8C936E
:100990009E012D5F3F4F8DE0D9011D928A95E9F7A9
:1009A00029E0298384E08A8381E08D8393E09E831C
:1009B0002A8721E22B878D878F8722E2288B27E0E9
:1009C0002B8B25E02C8B9E8B20E430E0388F2F8BF7
:1009D000898F82818B8395858685998B8A8B83818C
:1009E00080688D8B49E150E0BE016F5F7F4F80E0F2
:1009F0000E94C60269960FB6F894DEBF0FBECDBF47
:100A0000DF91CF910895CF93DF93809149018111B8
:100A100067C081E080933C0180933D0122E431E096
:100A200030933F0120933E0110924101109240010A
:100A30002DE131E0309339012093380110924401C7
:100A40001092430110924601109245018093470194
:100A50008093480181EC809342010E940F03FC01C6
:100A6000818190913C01482F490F5527551F4830EF
:100A700051059CF5A281B381109709F528E331E077
:100A800033832283208120933A0180933B0180911C
:100A90003D01820F808320913E01A22FB0913F0142
:100AA0008A2F821B8917C8F481813D91C82FD0E01D
:100AB000C050DF4F38838F5F8183F2CFD901189602
:100AC0002D913C91199721153105C1F728E331E0AB
:100AD00019963C932E931897D5CF81E080934901C6
:100AE00088E391E0DF91CF9108958F929F92AF922A
:100AF000BF92CF92DF92EF92FF920F931F93CF930B
:100B0000DF93CDB7DEB7ADB6BEB6809111022DB77B
:100B10003EB7281B31090FB6F8943EBF0FBE2DBF5C
:100B20008DB79EB701966C01E090E001F12C8091A9
:100B3000DC019091DD01D601FC019F01281B390BDE
:100B40002E153F051CF421912D93F7CF8091E101E3
:100B5000882359F18091D8019091D90128E097FD1F
:100B600009C068E671E00E94BE0D6DE270E00E946F
:100B7000BE0D262F8091DA019091DB0168E097FD90
:100B800008C068E671E00E94BE0D6DE270E00E9450
:100B9000BE0DF601EE0DFF1D90E1699FB00111241D
:100BA000262B2083F70131967F0186010E0D1F1D34
:100BB0002091E6013091E7014091E4015091E50177
:100BC0006091C2017091C3018091E20181700E9425
:100BD000FB00E80EF91E86010E0D1F1D2091EA0193
:100BE0003091EB014091E8015091E9016091C4011D
:100BF0007091C5018091E201869581700E94FB0091
:100C0000E80EF91E86010E0D1F1D2091EE01309198
:100C1000EF014091EC015091ED016091C60170919E
:100C2000C7018091E20182FB882780F90E94FB00C6
:100C3000E80EF91E86010E0D1F1D2091F201309164
:100C4000F3014091F0015091F1016091C801709160
:100C5000C9018091E20183FB882780F90E94FB0093
:100C6000E80EF91E86010E0D1F1D2091F601309130
:100C7000F7014091F4015091F5016091CA01709122
:100C8000CB018091E201829581700E94FB00E80E09
:100C9000F91E86010E0D1F1D2091FA013091FB01F6
:100CA0004091F8015091F9016091CC017091CD0112
:100CB0008091E20185FB882780F90E94FB00E80E05
:100CC000F91E86010E0D1F1D2091FE013091FF01BE
:100CD0004091FC015091FD016091D0017091D101D2
:100CE0008091E30181700E94FB00E80EF91E8601ED
:100CF0000E0D1F1D2091020230910302409100024F
:100D0000509101026091CE017091CF018091E30179
:100D1000869581700E94FB00E80EF91E86010E0D7B
:100D20001F1D20910602309107024091040250914C
:100D300005026091D2017091D3018091E30182FBA1
:100D4000882780F90E94FB00E80EF91E86010E0D2F
:100D50001F1D20910A0230910B0240910802509110
:100D600009026091D4017091D5018091E30183FB68
:100D7000882780F90E94FB008E0D9F1D8601080FB9
:100D8000191F20910E0230910F0240910C025091D8
:100D90000D026091D6017091D7018091E301829597
:100DA00081700E94FB000E9403054C0140911102DA
:100DB0008091100250E07A01FFEFEF1AFF0A2DB781
:100DC0003EB72E193F090FB6F8943EBF0FBE2DBF98
:100DD0000DB71EB70F5F1F4FEDB7FEB78183B6018A
:100DE000C80101960E94110FF4018381A701B80187
:100DF00080640E9491030FB6F894BEBE0FBEADBED4
:100E0000DF91CF911F910F91FF90EF90DF90CF90E6
:100E1000BF90AF909F908F9008959091DF018917B8
:100E200000F5E82FE695E695E6952091DC013091F6
:100E3000DD01E20FF32FF11D282F277081E090E0F4
:100E4000A0E0B0E004C0880F991FAA1FBB1F2A951D
:100E5000D2F72081822B80838091DE0181110C9456
:100E6000750508959091DF01891708F5E82FE6953B
:100E7000E695E6952091DC013091DD01E20FF32F3C
:100E8000F11D282F277081E090E0A0E0B0E004C0C1
:100E9000880F991FAA1FBB1F2A95D2F780959081B2
:100EA000892380838091DE0181110C94750508955A
:100EB0001F920F920FB60F9211248F939F938091E0
:100EC000E1009091E100937F9093E10083FF0FC0D8
:100ED0001092E90091E09093EB001092EC0092E305
:100EE0009093ED0010926F0198E09093F00082FFD4
:100EF00022C093E09093E9009091F200992319F0B9
:100F00009AE39093E80090916B01992341F09091BE
:100F10006B01915090936B01911101C05D9A90917A
:100F20006E01992341F090916E01915090936E0162
:100F3000911101C0289A84FF18C08091E2008E7E32
:100F400081608093E2008091E1008F7E8093E100D8
:100F500080916C018E7E806180936C019F918F9156
:100F60000F900FBE0F901F90189580FFF7CF8091C4
:100F7000E2008E7E80618093E2008091E1008E7EAF
:100F80008093E10080916C018E7E8160E5CF1F929D
:100F90000F920FB60F921124CF92DF92EF92FF9231
:100FA0000F931F932F933F934F935F936F937F9371
:100FB0008F939F93AF93BF93EF93FF93CF93DF9361
:100FC000CDB7DEB76C97DEBFCDBF1092E900809140
:100FD000E80083FF25C068E0CE0145960E94020329
:100FE00082EF8093E8008D8987FF39C09091E800F7
:100FF00090FFFCCF982F907609F034C19E894F89DD
:10100000588D2F89F88C911131C0803861F580910D
:101010006D018093F1001092F1008EEF8093E80053
:101020006C960FB6F894DEBF0FBECDBFDF91CF91A7
:10103000FF91EF91BF91AF919F918F917F916F91B0
:101040005F914F913F912F911F910F91FF90EF90E2
:10105000DF90CF900F900FBE0F901F9018959EEFCE
:101060009093E800C7CF1092F100D5CF913059F49A
:101070008111D3CF4130510581F680916D018D7F73
:1010800080936D01CACF933049F48111C6CF4130AE
:10109000510519F680916D018260F2CF953041F4CF
:1010A0008091E80080FFFCCF20682093E300B5CF5B
:1010B000963009F0A9C00B8D1C8D22E01092E9003A
:1010C0001092690110926801F2122EC0109267010D
:1010D000109266010E9423031F8299E09983FA828D
:1010E00091E09E8390EA98879AEF99872091680112
:1010F00030916901275F3F4F3C832B838D83109292
:10110000E900109269011092680110936701009341
:10111000660149E050E0BE016F5F7F4F80E00E94B2
:10112000C6020E94230379CF1093670100936601E2
:101130000E940F03DC0112960D911C9101151105FF
:1011400009F451C1D801ED91FC910480F581E02DA5
:10115000BE016B5E7F4FC8010995009709F03EC143
:10116000F80100851185EACFF3E0FF120EC08F89E8
:10117000882309F440C0823061F440E860E185E1F1
:1011800091E00E949302811148CF81E28093EB00AD
:1011900047CF813029F440E860E184E091E0F1CF6D
:1011A000833099F70E940F03DC011296ED90FC90BA
:1011B0008E010F5F1F4F6801E114F10479F0D70130
:1011C000ED91FC910680F781E02DB801C7010995EA
:1011D000080F111DF701E084F184EECFD8011C92B5
:1011E000F60101900020E9F73197BF016C197D09E4
:1011F00040E0C601C6CF6EEE70E0FB01449150E0C6
:1012000080E80E94C60209CF973009F4BECF98301B
:1012100021F481E08093F10000CF993009F0FDCEF8
:10122000837009F0B2CFE1E0F1E081E031E096E3D4
:101230002191222371F08093E9003093EB00DF01CC
:1012400011972C912093EC009093ED008F5F8730E5
:1012500079F78EE78093EA001092EA008F898093F5
:101260006F01DBCE8B8D9C8D1092E900109269018D
:10127000109268019093670180936601898D8111B6
:1012800092C08E899D89913A49F4813209F07DCFCF
:1012900047E050E06BE071E080E0B3CF913209F0BD
:1012A00074CF833269F48F89988DB0E0A0E0809389
:1012B000070190930801A0930901B0930A01ADCEF4
:1012C000803269F48091E80082FFFCCF67E08BE018
:1012D00091E00E9402038BEF8093E8009ECE823261
:1012E00009F09BCE8F8980931201EEEFFFE7859185
:1012F00094918B3F9C4D51F1E0E0F8E080910B011F
:1013000090910C01A0910D01B0910E01803B944091
:10131000A105B105F1F48091120180FD1AC0EE3FE4
:101320008AE0F80789F587E797E7918380838091C2
:10133000600080936A0188E19BE00FB6F894A8955D
:10134000809360000FBE9093600067CEEEEFFAE0EE
:10135000D5CF808191818737974709F05ECEA895D8
:101360008091600088618093600080916A01809321
:101370006000EE3F2AE0F20789F08091FE0A90912A
:10138000FF0A9183808349CE8081918187379807B6
:1013900051F29093FF0A8093FE0AC5CF1092FF0A84
:1013A0001092FE0A3ACE0E940F03DC0112960D91B4
:1013B0001C910115110509F4E8CED801ED91FC91BD
:1013C0000190F081E02DBE016B5E7F4FC801099551
:1013D000811123CEF80100851185EBCF181619066F
:1013E0000CF41BCED2CEF1E0FF12BECE62EF70E065
:1013F00004CF1F920F920FB60F9211242F933F9399
:101400008F939F93AF93BF9380915201909153011B
:10141000A0915401B09155013091510123E0230F67
:101420002D3758F50196A11DB11D209351018093D0
:10143000520190935301A0935401B09355018091B0
:10144000560190915701A0915801B0915901019610
:10145000A11DB11D8093560190935701A09358018F
:10146000B0935901BF91AF919F918F913F912F916F
:101470000F900FBE0F901F90189526E8230F02962D
:10148000A11DB11DD2CFEF92FF920F931F93CF9367
:10149000DF93CDB7DEB7C659D1090FB6F894DEBFDA
:1014A0000FBECDBF109273011092720188EE93E0CF
:1014B000A0E0B0E08093740190937501A093760151
:1014C000B093770189E291E090937101809370016C
:1014D0008FEF9FEF90937D0180937C011092C0016C
:1014E0001092C1011092DD011092DC011092E00116
:1014F0001092E5011092E4018FEF93E09093E701E1
:101500008093E6011092E9011092E8019093EB01BB
:101510008093EA011092ED011092EC019093EF019B
:101520008093EE011092F1011092F0019093F3017B
:101530008093F2011092F5011092F4019093F7015B
:101540008093F6011092F9011092F8019093FB013B
:101550008093FA011092FD011092FC019093FF011B
:101560008093FE01109201021092000290930302F8
:1015700080930202109205021092040290930702D7
:1015800080930602109209021092080290930B02B7
:1015900080930A0210920D0210920C0290930F0297
:1015A00080930E0233E03093100220E12093DF019C
:1015B0001092E1013093E2011092E30145E049838A
:1015C00081E08A8399E09B8354E05C8361EA6D83C8
:1015D0008E8355E85F83388749879A8739E13B874F
:1015E0008C8739E23D872E8735E13F87188A35E2BF
:1015F000398B8A8BE5E7EB8B8C8B75E97D8B2E8B9A
:1016000035E53F8B188E35E6398F1A8E51E85B8FA2
:1016100032E03C8F4D8F8E8F9F8F88A346E149A388
:101620008AA380E88BA386E28CA38FEF8DA38FE73C
:101630008EA3EFA328A779A73AA76BA71CA69DA7FF
:1016400080E38EA79FA781E388AB59AB3AAB80ECD0
:101650008BAB8CAB84E390E00E94EC0D7C0184E3C7
:10166000FE013196D70101900D928A95E1F787E04E
:1016700090E00E94EC0D8C01DC0111961C921E92F0
:101680001396FC92EE92129784E390E015969C9349
:101690008E93149716961C920E940305FC01A38555
:1016A000B485109709F073C01487038785859685E4
:1016B000D80114962D913C91820F931F96878587B0
:1016C0009091DF01892F869586958695977009F010
:1016D00066C08093E0011091E001812F90E00E94AC
:1016E000EC0D9093DD018093DC0181E09091E101AC
:1016F000911101C080E01C5F810F80931102109254
:10170000C3011092C2011092C5011092C40110923F
:10171000C7011092C6011092C9011092C80110921F
:10172000CB011092CA011092CD011092CC011092FF
:10173000CF011092CE011092D1011092D0011092DF
:10174000D3011092D2011092D5011092D4011092BF
:10175000D7011092D6018FEF9FEF9093D90180931C
:10176000D8019093DB018093DA0190E080E0209132
:10177000E00128171906A9F0A4F0E091DC01F0912E
:10178000DD01E80FF91F10820196F1CFDC018D9188
:101790009C9111970097D1F70D931C9387CF8F5F82
:1017A00098CF8FEF8093120280931302CA56DF4FB7
:1017B0000FB6F894DEBF0FBECDBFDF91CF911F9162
:1017C0000F91FF90EF900895789484B5826084BD66
:1017D00084B5816084BD85B5826085BD85B5816035
:1017E00085BD80916E00816080936E0010928100B3
:1017F000809181008260809381008091810081606E
:10180000809381008091800081608093800080912E
:10181000910082608093910080919100816080931B
:101820009100809190008160809390008091C10030
:1018300084608093C1008091C10082608093C10068
:101840008091C10081608093C1008091C30081605C
:101850008093C3008091C00082608093C00080911B
:10186000C20081608093C20080917A00846080937E
:101870007A0080917A00826080937A0080917A0069
:10188000816080937A0080917A00806880937A00EA
:1018900010926F0110926D0110926C018091D7002F
:1018A00081608093D70080EA8093D80089B58061F9
:1018B00089BD89B5826089BD09B400FEFDCF0E9453
:1018C00079038091D8008F7C80618093D8008091CB
:1018D000E000807F8093E0008091E1008E7E809325
:1018E000E1008DE08093E200559A209AE2E7F1E072
:1018F0002491E3E5F1E08491882399F090E0880F4A
:10190000991FFC01EA5DFE4FA591B491FC01EC5CCE
:10191000FE4F859194918FB7F894EC91E22BEC9364
:101920008FBF81E00E94520184B1806784B985B184
:10193000806785B98AB183608AB98BB183608BB9BE
:101940008FEF8093C0018093C10120E03CEF309382
:10195000E5012093E40180E094E09093E701809317
:10196000E6013093E9012093E8019093EB01809325
:10197000EA011092DE010E94750580E00E9452018A
:101980008BE3C82E8CE9D82E90E0E92E90E0F92E5A
:10199000C0E0D4E000E01CEF83B129B182958F70E4
:1019A00098E0299F90011124822B806E8095909160
:1019B000C001981739F18093C00181E09091C10175
:1019C000992311F11092C101C6010197F1F780919D
:1019D000C00190911202981709F463C0809312021B
:1019E0009091DE0182FF19C01093C3010093C201E0
:1019F00091110E9475058FE00E940D078DE00E94F5
:101A000032071AC080E0DACF8111DECFE114F10491
:101A100009F4C2CF0E940000BFCF83FF21C0D09342
:101A2000C301C093C20191110E9475058FE00E940D
:101A300032078DE00E940D079091C0018091DE0178
:101A400090FF19C01093C5010093C40181110E9439
:101A500075058CE00E940D078EE00E9432071AC0C7
:101A60001092C3011092C20191110E9475058FE07E
:101A70000E943207C3CF91FF17C0D093C501C09316
:101A8000C40181110E9475058CE00E9432078EE02E
:101A90000E940D078091C00184FD11C080E00E946A
:101AA00032070E94750578CF1092C5011092C401CB
:101AB00081110E9475058CE00E943207CDCF80E035
:101AC0000E940D07EECF052E97FB1EF400940E9496
:101AD0007A0D57FD07D00E948D0D07FC03D04EF400
:101AE0000C947A0D50954095309521953F4F4F4F6E
:101AF0005F4F089590958095709561957F4F8F4FBA
:101B00009F4F08950E94AF0DA59F900DB49F900D1B
:101B1000A49F800D911D11240895A1E21A2EAA1BE5
:101B2000BB1BFD010DC0AA1FBB1FEE1FFF1FA2178D
:101B3000B307E407F50720F0A21BB30BE40BF50B8A
:101B4000661F771F881F991F1A9469F76095709513
:101B5000809590959B01AC01BD01CF010895A29F96
:101B6000B001B39FC001A39F700D811D1124911D71
:101B7000B29F700D811D1124911D089597FB072EB2
:101B800016F4009407D077FD09D00E94D80D07FC09
:101B900005D03EF4909581959F4F0895709561957D
:101BA0007F4F0895EE0FFF1F0590F491E02D0994EB
:101BB000AA1BBB1B51E107C0AA1FBB1FA617B70773
:101BC00010F0A61BB70B881F991F5A95A9F780958F
:101BD0009095BC01CD0108950F931F93CF93DF9390
:101BE0008230910510F482E090E0E0911602F091CD
:101BF000170230E020E0B0E0A0E0309799F4211522
:101C0000310509F44AC0281B390B24303105D8F5B9
:101C10008A819B816115710589F1FB019383828320
:101C2000FE0111C04081518102811381481759077B
:101C3000E0F04817590799F4109761F012960C9349
:101C4000129713961C933296CF01DF91CF911F917B
:101C50000F9108950093160210931702F4CF2115E7
:101C6000310551F04217530738F0A901DB019A0101
:101C7000BD01DF01F801C1CFEF01F9CF9093170249
:101C800080931602CDCFFE01E20FF31F8193919353
:101C90002250310939832883D7CF20911402309103
:101CA0001502232B41F42091150130911601309338
:101CB0001502209314022091130130911401211573
:101CC000310541F42DB73EB74091170150911801ED
:101CD000241B350BE0911402F0911502E217F30773
:101CE000A0F42E1B3F0B2817390778F0AC014E5F8C
:101CF0005F4F2417350748F04E0F5F1F50931502B2
:101D000040931402819391939FCFF0E0E0E09CCF49
:101D1000CF93DF930097E9F0FC0132971382128290
:101D2000A0911602B0911702ED0130E020E010976B
:101D3000A1F420813181820F931F209114023091F0
:101D400015022817390709F061C0F0931502E093D6
:101D50001402DF91CF910895EA01CE17DF07E8F56D
:101D60004A815B819E0141155105B1F7E901FB8371
:101D7000EA8349915991C40FD51FEC17FD0761F40F
:101D8000808191810296840F951FE9019983888350
:101D9000828193819B838A83F0E0E0E012968D91AB
:101DA0009C9113970097B9F52D913C911197CD0116
:101DB0000296820F931F209114023091150228176A
:101DC000390739F6309751F5109217021092160222
:101DD000B0931502A0931402BCCFD383C283408179
:101DE0005181840F951FC817D90761F44E5F5F4F6B
:101DF00088819981480F591F518340838A819B8133
:101E0000938382832115310509F0B0CFF093170237
:101E1000E09316029ECFFD01DC01C0CF1382128237
:101E2000D7CFFB01DC0102C001900D924150504020
:081E3000D8F70895F894FFCFE4
:101E380000C18081000000FFFFFFFF00E1000000FB
:101E4800000000000018028000000000003D04B9F6
:101E5800047B04600400000000E8012704FD02FE82
:081E6800014B020902270200F0
:00000001FF
