:100000000C94D8000C9400010C9400010C94000195
:100010000C9400010C9400010C9400010C9400015C
:100020000C9400010C9400010C94E6080C94550902
:100030000C9400010C9400010C9400010C9400013C
:100040000C9400010C9400010C9400010C9400012C
:100050000C9400010C9400010C9400010C94870B8B
:100060000C9400010C9400010C9400010C9400010C
:100070000C9400010C9400010C9400010C940001FC
:100080000C9400010C9400010C9400010C940001EC
:100090000C9400010C9400010C9400010C940001DC
:1000A0000C9400010C9400010C940001080B000258
:1000B0000202000009040000010202000005240001
:1000C0001001052401010104240206052406000193
:1000D0000705810310004009040100020A00000026
:1000E00007050202400000070583024000000403E8
:1000F000090412010002EF02014066666706000172
:1001000001020301526574726F5553424A6F79734D
:100110007469636B00526574726F5553424A6F790C
:10012000737469636B00000000002300260029003F
:100130002C002F000000000200090F000003040142
:10014000000C0000000000000000000000000000A3
:1001500000000000000000250028002B002E0031C8
:100160000000000000240027002A002D00300004B9
:10017000040404040304050202020204030202024E
:100180000206060606060604040202020404040827
:10019000020110408040102040804080080204018D
:1001A0008040201002011080102040402000D10B20
:1001B00011241FBECFEFDAE0DEBFCDBF11E0A0E01B
:1001C000B1E0EEEEF3E202C005900D92A833B10764
:1001D000D9F721E0A8E3B1E001C01D92A93EB20722
:1001E000E1F710E0C8EDD0E004C02197FE010E94C5
:1001F000AD10C73DD107C9F70E946A0D0C94F511E7
:100200000C940000382F28E080E0880FE091C701AF
:10021000F091C80140819091CD01492309F08F5F91
:10022000E091C501F091C6014081942B908337FF86
:1002300009C0E091C301F091C40190814091CD01CA
:10024000942B9083E091C901F091CA019081409173
:10025000CE01942B9083E091C901F091CA014081B5
:100260009091CE01909594239083E091C301F091F9
:10027000C40140819091CD01909594239083E091A9
:10028000C501F091C60140819091CD0190959423D4
:100290009083330F215009F0B8CF089590E0FC010E
:1002A000E257FE4F249181599E4FFC01849188238F
:1002B00099F090E0880F991FFC01EF59FE4FA5912E
:1002C000B491FC01ED5AFE4F859194918FB7F8944B
:1002D000EC91E22BEC938FBF0895FC0180917001AB
:1002E000882311F13FB7F89482E08093E9002091D0
:1002F000F200822F90E01816190614F481E090E0C5
:10030000882339F0289844E640936F014091F1002A
:100310004083222339F02091F200211103C02BE603
:100320002093E8003FBF08958FEF9FEF0895CF938C
:10033000DF931F92CDB7DEB76983DC01ED91FC91AD
:100340000280F381E02D41E050E0BE016F5F7F4FFE
:1003500009950F90DF91CF91089583E08093E90094
:100360008091F200882319F08AE38093E8000895D1
:10037000CF93DF931F92CDB7DEB7FC0184859585BF
:1003800097FD08C02FEF3FEF358724870F90DF914F
:10039000CF910895CE0101960E946D01019719F445
:1003A000898190E0F3CF8FEF9FEFF0CF0F931F93F2
:1003B000CF93DF931F92CDB7DEB78C01FC0184850C
:1003C000958597FF0BC0CE0101960E946D010197A4
:1003D00071F4898190E0F80195878487F80184851C
:1003E00095850F90DF91CF911F910F9108958FEF19
:1003F0009FEFF1CFFC018485958597FD0BC09FB7DA
:10040000F89482E08093E9008091F2009FBF90E031
:10041000019608959FB7F89482E08093E900809157
:10042000F2009FBF90E008954091680150916901EA
:10043000209166013091670142175307B4F49091FF
:10044000E8009570E1F39091E80092FD19C0809367
:10045000F100809168019091690101968F7399274D
:10046000892B19F48EEF8093E800809168019091B8
:1004700069010196909369018093680181E0089574
:1004800080E00895EF92FF920F931F93CF93DF9335
:10049000F82E192FE62E042F81E0860F880F0E9478
:1004A000140283E00E941402CF2DD12FEC0EFD2EFA
:1004B000F11CCE15DF05B9F007FF13C0FE018491D2
:1004C0000E941402182F80E00E94140281232196BA
:1004D0008111EFCFDF91CF911F910F91FF90EF909E
:1004E00008958881EDCF81E0F5CFDF92EF92FF9202
:1004F0000F931F93CF93DF93D82E8A01EB017B01DB
:10050000E40EF51ECE15DF0559F0D7FE12C0FE0130
:1005100084910E94140221968111F4CF0FEF1FEFF6
:10052000C801DF91CF911F910F91FF90EF90DF9065
:1005300008958881EECF2FB7F89487708093E900F3
:100540009091E800892F807295FF04C09091F2008D
:1005500080E4891B2FBF089583E00E949B0290E0F6
:100560000895615030F02091F100FC012083019644
:10057000F8CF289884E680936F01089580915E01FA
:1005800081110DC082E080935A0184E080935B0169
:1005900010925D0110925C0181E080935E018AE51A
:1005A00091E008950F931F93CF93DF931F92CDB7E0
:1005B000DEB782E0898342E450E06CEA70E080E8D4
:1005C0000E9475020E94BE02DC0112960D911C91E0
:1005D0000115110589F0D801ED91FC910280F3819C
:1005E000E02DBE016F5F7F4FC801099597FD04C0E4
:1005F000F80100851185ECCF89810F90DF91CF91B3
:100600001F910F91089581508F3008F047C0E82F57
:10061000F0E0E35FFC4F0C94AD102A032E031C03A3
:10062000220326034E034E034E03310337033B03DD
:100630003F0345034E034903809180008F778093E9
:1006400080000895809180008F7DF9CF8091800097
:10065000877FF5CF84B58F7784BD089584B58F7D6E
:10066000FBCF809190008F778093900008958091C8
:1006700090008F7DF9CF80919000877FF5CF80919A
:10068000C0008F778093C00008958091C0008F7D57
:10069000F9CF8091C200877F8093C20008951F9395
:1006A000CF93DF93282F30E0F901EC5CFE4F84916B
:1006B000F901E257FE4FD491F901E159FE4FC4917F
:1006C000CC23A9F0162F81110E940303EC2FF0E038
:1006D000EE0FFF1FED5AFE4FA591B4918FB7F8941E
:1006E000EC91111108C0D095DE23DC938FBFDF9110
:1006F000CF911F910895DE2BF8CFDF92EF92FF92FA
:100700000F931F93CF93DF937C01C62F142F052FD8
:10071000D22EF8948091D00160E0882379F1809105
:10072000CC010E944F038BEC97E00197F1F78C2FDF
:100730000E940201C12FD02F8E010D0D111DC01777
:10074000D10751F089910E940201E114F104B9F737
:10075000FE0131978083F3CF61E08091CC010E944C
:100760004F038BEC97E00197F1F77894DF91CF91ED
:100770001F910F91FF90EF90DF9008958091CC0131
:100780000E944F0380E58CBD1DBCCEBD00000DB4A2
:1007900007FEFDCF8EB5812FE12FF02F9E2F981BE6
:1007A0009D1568F490819EBD00000DB407FEFDCF3D
:1007B0009EB5E114F10409F490833196EFCF61E026
:1007C0008091CC010E944F03D0CFCF93DF931F9233
:1007D000CDB7DEB721E0AE014F5F5F4F682F90E0ED
:1007E00080E00E947D0389810F90DF91CF91089571
:1007F000CF93DF931F92CDB7DEB76983682F606216
:1008000021E0AE014F5F5F4F81E090E00E947D03E9
:100810000F90DF91CF9108953FB7F89480915601E2
:1008200090915701A0915801B091590126B5A89B0C
:1008300005C02F3F19F00196A11DB11D3FBFBA2F72
:10084000A92F982F8827BC01CD01620F711D811D32
:10085000911D42E0660F771F881F991F4A95D1F7B7
:1008600008958F929F92AF92BF92CF92DF92EF92B4
:10087000FF924B015C010E940C046B017C010E9401
:100880000C046C197D098E099F09683E734081052F
:100890009105A8F321E0821A9108A108B10888EE19
:1008A000C80E83E0D81EE11CF11C81149104A10440
:1008B000B10429F7FF90EF90DF90CF90BF90AF90F9
:1008C0009F908F9008950F931F93CF931092CF0115
:1008D000CBE503E210E0C15009F43CC087E10E947F
:1008E000E50384FD37C08091D101882369F061E080
:1008F0008091CB010E944F03C8010197F1F760E09E
:100900008091CB010E944F038091D2019091D3013D
:100910008230910538F0880F991F880F991F05972D
:100920000197F1F787E00E94E50385FF05C060E2CB
:1009300087E00E94F803CFCF84FFCDCF20E050E0C6
:1009400040E061EE81E090E00E947D0360E187E09D
:100950000E94F80381E08093CF0160E08091CB0199
:100960000E944F036BE080E00E94F80361E08091F9
:10097000CB010E944F0365E070E080E090E00E94B0
:10098000310480E00E94E50391E08B3009F090E0B3
:10099000892FCF911F910F9108957F928F929F92EF
:1009A000AF92BF92CF92DF92EF92FF920F931F937D
:1009B000CF93DF93C82E8B017A0180917001811152
:1009C00010C08FEF9FEFDF91CF911F910F91FF909C
:1009D000EF90DF90CF90BF90AF909F908F907F90DF
:1009E000089580916C0180FF05C08091E0008260D5
:1009F0008093E000CE2DDF2DD12C8AEFB82E8C2DE8
:100A00008770982E8C2D8072882E8C2D8074782E75
:100A10009AE3A92E209719F4DD2009F452C08C2DF9
:100A20000E949B0281110AC0BA94BB2051F261E07E
:100A300070E080E090E00E943104ECCF8C171D063E
:100A400011F00CF08C2F9FB7F8949092E900209150
:100A5000E80025FD02C09FBFDDCF282F30E0C21B7C
:100A6000D30B882029F08150A0F01092F100FBCF29
:100A7000F801C7FC0AC0815050F041914093F10049
:100A8000FACF44914093F10031968150D0F7020F94
:100A9000131FDD2021F0A092E800D12CDCCF809143
:100AA000E80085FD07C0A092E800DD24D3942097DC
:100AB00091F2F3CF209779F6772069F2A092E800BF
:100AC000CACF5D9884E680936B01C7017CCFCF933A
:100AD000DF93EC0180911201882331F083E00E94C2
:100AE000CD041816190634F081E090E09B838A83C8
:100AF00080E090E0DF91CF910895DC01FB01129638
:100B00002C911297848195812817190641F49181BF
:100B10008081813A31F49D7F81E0913009F080E05D
:100B200008958132E1F79B3029F482811F968C93DE
:100B300081E008959A3099F7828150968C93F8CF8E
:100B4000DC01FB0188E4808389E4818384E482837F
:100B50001D969C911D979F709F5B93831D968D9111
:100B60009C9124E0969587952A95E1F78F708F5B8D
:100B7000848385E00895EF92FF920F931F93CF93A4
:100B8000DF93FB012081213889F52381223271F521
:100B9000DC0112964C91248135814217130631F500
:100BA0008C01FC01C385D485F12CE12C209791F0B8
:100BB0004C815D816A817B818E81811180E80E94F8
:100BC00075028F3F980759F0E80EF91E0990D881F9
:100BD000C02DECCF81E0D8011F968C93C701DF9127
:100BE000CF911F910F91FF90EF90089590E080E0DA
:100BF000F6CFCF93DF93CDB7DEB769970FB6F894F2
:100C0000DEBF0FBECDBFFC01DB018C918F5F8C93EB
:100C10009E012D5F3F4F8DE0D9011D928A95E9F726
:100C200029E0298384E08A8381E08D8393E09E8399
:100C30002A8721E22B878D878F8722E2288B27E066
:100C40002B8B25E02C8B9E8B20E430E0388F2F8B74
:100C5000898F82818B8395858685998B8A8B838109
:100C600080688D8B49E150E0BE016F5F7F4F80E06F
:100C70000E94750269960FB6F894DEBF0FBECDBF15
:100C8000DF91CF910895CF93DF9380914901811136
:100C900067C081E080933C0180933D0122E431E014
:100CA00030933F0120933E01109241011092400188
:100CB0002DE131E030933901209338011092440145
:100CC0001092430110924601109245018093470112
:100CD0008093480181EC809342010E94BE02FC0196
:100CE000818190913C01482F490F5527551F48306D
:100CF00051059CF5A281B381109709F528E331E0F5
:100D000033832283208120933A0180933B01809199
:100D10003D01820F808320913E01A22FB0913F01BF
:100D20008A2F821B8917C8F481813D91C82FD0E09A
:100D3000C050DF4F38838F5F8183F2CFD90118967F
:100D40002D913C91199721153105C1F728E331E028
:100D500019963C932E931897D5CF81E08093490143
:100D600088E391E0DF91CF910895CF92DF92EF92E7
:100D7000FF920F931F93CF93DF93D901E70169018E
:100D8000F8012017310714F06801F90190E080E0C4
:100D90006623B9F1CA014C155D050CF4C6019F012B
:100DA0008E179F070CF49C010A171B0734F4CF0120
:100DB000821B930B9C012C0D3D1D0D2C000CEE088D
:100DC000FF08032E000C440B550B2C193D094E094E
:100DD0005F09AEEFBFEF0E945D109F01FF0F440B54
:100DE000550B2C193D094E095F090E943E10DA018E
:100DF000C9018F5F9F47A109B1098883998382E068
:100E000090E0DF91CF911F910F91FF90EF90DF90D5
:100E1000CF9008954F925F926F927F928F929F92A0
:100E2000AF92BF92CF92DF92EF92FF920F931F93F8
:100E3000CF93DF93CDB7DEB76C014DB65EB63C0104
:100E40002FE4620E711CF30180812DB73EB7281B81
:100E500031090FB6F8943EBF0FBE2DBF8DB79EB7B8
:100E600001964C01F601A68CB12CDC0190E080E0EB
:100E7000F6018A159B054CF4228D338DF901E80F9C
:100E8000F91F20812D930196F3CF878D882341F19F
:100E90008689978928E097FD09C068E671E00E947D
:100EA00099106DE270E00E949910262FF601808D56
:100EB000918D68E097FD08C068E671E00E94991086
:100EC0006DE270E00E949910F401EA0DFB1D30E123
:100ED000639FB0011124262B2083C50101965C017C
:100EE0007401EA0CFB1CF60104A115A122A133A197
:100EF0004081518160A16170C6010E94B506A80EB3
:100F0000B91E7401EA0CFB1CF60100A511A526A16F
:100F100037A14281538160A166956170C6010E942C
:100F2000B506A80EB91E7401EA0CFB1CF60104A557
:100F300015A522A533A54481558160A162FB6627D2
:100F400060F9C6010E94B506A80EB91E7401EA0C2C
:100F5000FB1CF60100A911A926A537A546815781DA
:100F600060A163FB662760F9C6010E94B506A80E62
:100F7000B91E7401EA0CFB1CF60104A915A922A9EB
:100F800033A94085518560A162956170C6010E94B8
:100F9000B506A80EB91E7401EA0CFB1CF60100ADE3
:100FA00011AD26A937A94285538560A165FB662747
:100FB00060F9C6010E94B506A80EB91E7401EA0CBC
:100FC000FB1CF60104AD15AD22AD33AD468557854A
:100FD00061A16170C6010E94B506A80EB91E740118
:100FE000EA0CFB1CF601E05CFF4F00811181F60169
:100FF00026AD37AD4485558561A166956170C60102
:101000000E94B506A80EB91E7401EA0CFB1CF6017D
:10101000EC5BFF4F00811181329720813181F60115
:101020004089518961A162FB662760F9C6010E946F
:10103000B506A80EB91E7401EA0CFB1CF601E85BAC
:10104000FF4F00811181329720813181F601428961
:10105000538961A163FB662760F9C6010E94B5064A
:101060008A0D9B1D7401E80EF91EF601E45BFF4F2B
:1010700000811181329720813181F601448955899F
:1010800061A162956170C6010E94B5060E94430687
:101090005C01F3014081F601E25BFF4F808150E08B
:1010A0007A01FFEFEF1AFF0A2DB73EB72E193F095D
:1010B0000FB6F8943EBF0FBE2DBF0DB71EB70F5F22
:1010C0001F4FEDB7FEB78183B401C80101960E949E
:1010D000EC11F5018381A701B80180640E94CD0461
:1010E0000FB6F8945EBE0FBE4DBEDF91CF911F913B
:1010F0000F91FF90EF90DF90CF90BF90AF909F90B7
:101100008F907F906F905F904F900895FC01858D38
:10111000681700F5A62FA695A695A695828D938DA6
:10112000A80FB92FB11D962F977041E050E060E0F5
:1011300070E004C0440F551F661F771F9A95D2F7C1
:1011400040958C9148234C93848D882319F0CF01CE
:101150000C940A070895CF92DF92EF92FF920F93BB
:101160001F93DC015D962C915D97621740F5E62F89
:10117000E695E695E6955A962D913C915B97E20FA0
:10118000F32FF11D677001E010E020E030E068010E
:10119000790104C0CC0CDD1CEE1CFF1C6A95D2F753
:1011A00020812C2920835C962C91222341F01F91D1
:1011B0000F91FF90EF90DF90CF900C940A071F9152
:1011C0000F91FF90EF90DF90CF9008951F920F92B4
:1011D0000FB60F9211248F939F938091E10090910D
:1011E000E100937F9093E10083FF0FC01092E9002C
:1011F00091E09093EB001092EC0092E39093ED005D
:101200001092700198E09093F00082FF22C093E06A
:101210009093E9009091F200992319F09AE390934A
:10122000E80090916B01992341F090916B019150EE
:1012300090936B01911101C05D9A90916F01992378
:1012400041F090916F01915090936F01911101C005
:10125000289A84FF18C08091E2008E7E816080937E
:10126000E2008091E1008F7E8093E10080916C012B
:101270008E7E806180936C019F918F910F900FBE45
:101280000F901F90189580FFF7CF8091E2008E7E1F
:1012900080618093E2008091E1008E7E8093E10086
:1012A00080916C018E7E8160E5CF1F920F920FB608
:1012B0000F921124CF92DF92EF92FF920F931F9320
:1012C0002F933F934F935F936F937F938F939F934E
:1012D000AF93BF93EF93FF93CF93DF93CDB7DEB779
:1012E0006C97DEBFCDBF1092E9008091E80083FFCC
:1012F00025C068E0CE0145960E94B10282EF80933E
:10130000E8008D8987FF39C09091E80090FFFCCFFD
:10131000982F907609F034C19E894F89588D2F8976
:10132000F88C911131C0803861F580916D01809306
:10133000F1001092F1008EEF8093E8006C960FB6EA
:10134000F894DEBF0FBECDBFDF91CF91FF91EF913B
:10135000BF91AF919F918F917F916F915F914F91CD
:101360003F912F911F910F91FF90EF90DF90CF90C1
:101370000F900FBE0F901F9018959EEF9093E8006E
:10138000C7CF1092F100D5CF913059F48111D3CF4E
:101390004130510581F680916D018D7F80936D0103
:1013A000CACF933049F48111C6CF4130510519F6A7
:1013B00080916D018260F2CF953041F48091E80018
:1013C00080FFFCCF20682093E300B5CF963009F072
:1013D000A9C00B8D1C8D22E01092E90010926901CA
:1013E00010926801F2122EC01092670110926601ED
:1013F0000E94D2021F8299E09983FA8291E09E8333
:1014000090EA98879AEF9987209168013091690155
:10141000275F3F4F3C832B838D831092E90010920E
:10142000690110926801109367010093660149E019
:1014300050E0BE016F5F7F4F80E00E9475020E9406
:10144000D20279CF10936701009366010E94BE0219
:10145000DC0112960D911C910115110509F451C181
:10146000D801ED91FC910480F581E02DBE016B5E09
:101470007F4FC8010995009709F03EC1F80100852A
:101480001185EACFF3E0FF120EC08F89882309F49B
:1014900040C0823061F440E860E185E191E00E9463
:1014A0004202811148CF81E28093EB0047CF813027
:1014B00029F440E860E184E091E0F1CF833099F7CE
:1014C0000E94BE02DC011296ED90FC908E010F5F2F
:1014D0001F4F6801E114F10479F0D701ED91FC91FF
:1014E0000680F781E02DB801C7010995080F111D8D
:1014F000F701E084F184EECFD8011C92F60101904F
:101500000020E9F73197BF016C197D0940E0C60161
:10151000C6CF6EEE70E0FB01449150E080E80E947F
:10152000750209CF973009F4BECF983021F481E0DD
:101530008093F10000CF993009F0FDCE837009F05F
:10154000B2CFE1E0F1E081E031E096E321912223A6
:1015500071F08093E9003093EB00DF0111972C913B
:101560002093EC009093ED008F5F873079F78EE742
:101570008093EA001092EA008F8980937001DBCE9D
:101580008B8D9C8D1092E900109269011092680178
:101590009093670180936601898D811192C08E8935
:1015A0009D89913A49F4813209F07DCF47E050E0BE
:1015B0006BE071E080E0B3CF913209F074CF8332F9
:1015C00069F48F89988DB0E0A0E080930701909333
:1015D0000801A0930901B0930A01ADCE803269F4ED
:1015E0008091E80082FFFCCF67E08BE091E00E94F1
:1015F000B1028BEF8093E8009ECE823209F09BCE41
:101600008F8980931201EEEFFFE7859194918B3FD4
:101610009C4D51F1E0E0F8E080910B0190910C01BC
:10162000A0910D01B0910E01803B9440A105B10540
:10163000F1F48091120180FD1AC0EE3F8AE0F807B4
:1016400089F587E797E79183808380916000809395
:101650006A0188E19BE00FB6F894A895809360003A
:101660000FBE9093600067CEEEEFFAE0D5CF808199
:1016700091818737974709F05ECEA89580916000E9
:1016800088618093600080916A0180936000EE3FE2
:101690002AE0F20789F08091FE0A9091FF0A918377
:1016A000808349CE808191818737980751F290934A
:1016B000FF0A8093FE0AC5CF1092FF0A1092FE0A1D
:1016C0003ACE0E94BE02DC0112960D911C910115CA
:1016D000110509F4E8CED801ED91FC910190F0815B
:1016E000E02DBE016B5E7F4FC8010995811123CEAD
:1016F000F80100851185EBCF181619060CF41BCEE6
:10170000D2CEF1E0FF12BECE62EF70E004CF1F92A6
:101710000F920FB60F9211242F933F938F939F93A5
:10172000AF93BF938091520190915301A0915401C6
:10173000B09155013091510123E0230F2D3758F519
:101740000196A11DB11D20935101809352019093E8
:101750005301A0935401B09355018091560190918B
:101760005701A0915801B09159010196A11DB11DD9
:101770008093560190935701A0935801B09359015B
:10178000BF91AF919F918F913F912F910F900FBE7D
:101790000F901F90189526E8230F0296A11DB11DEA
:1017A000D2CFCF92DF92EF92FF920F931F93CF93FE
:1017B000DF93CDB7DEB7C659D1090FB6F894DEBFB7
:1017C0000FBECDBF109274011092730188EE93E0AA
:1017D000A0E0B0E08093750190937601A09377012B
:1017E000B093780189E291E0909372018093710146
:1017F0008FEF9FEF90937E0180937D019093D701AF
:101800008093D60184E590E00E94C7108C01DC0132
:101810001C9211961C9211975D961C921E925C97D9
:1018200090961C92909795961C921E9294978FEF8B
:1018300093E097969C938E93969799961C921E92FE
:1018400098979B969C938E939A979D961C921E9226
:101850009C979F969C938E939E97D1961C921E92D6
:10186000D097D3969C938E93D297D5961C921E9226
:10187000D497D7969C938E93D697D9961C921E9206
:10188000D897DB969C938E93DA97DD961C921E92E6
:10189000DC97DF969C938E93DE97F801E05CFF4F18
:1018A0001182108232969183808332961182108247
:1018B0003296918380833296118210823296918380
:1018C0008083329611821082329691838083329681
:1018D00033E0308320E1F801278F11A232A313A255
:1018E00045E0498381E08A8399E09B8354E05C83EF
:1018F00061EA6D838E8355E85F83388749879A87CD
:1019000039E13B878C8739E23D872E8735E13F8778
:10191000188A35E2398B8A8BE5E7EB8B8C8B75E97E
:101920007D8B2E8B35E53F8B188E35E6398F1A8EE1
:1019300051E85B8F32E03C8F4D8F8E8F9F8F88A355
:1019400046E149A38AA380E88BA386E28CA38FEFAC
:101950008DA38FE78EA3EFA328A779A73AA76BA73C
:101960001CA69DA780E38EA79FA781E388AB59ABF8
:101970003AAB80EC8BAB8CAB84E390E00E94C71059
:101980006C0184E3FE013196D60101900D928A9597
:10199000E1F787E090E00E94C7107C01DC0111961E
:1019A0001C921E921396DC92CE92129784E390E0E2
:1019B00015969C938E93149716961C920E9443063C
:1019C000FC01A385B485109709F05EC0F486E38618
:1019D00085859685D70114962D913C91820F931F92
:1019E00096878587F801978D892F869586958695A8
:1019F000977009F051C080A3F801F0A08F2D90E0FE
:101A00000E94C710D8015D969C938E935C97F80155
:101A1000EF5AFF4F81E091969C91911101C080E0B7
:101A200094E09F0D890F8083F80113821282158242
:101A300014821782168211861086138612861586E6
:101A4000148617861686118A108A138A128A158AB6
:101A5000148A178A168A8FEF9FEF918F808F938F4A
:101A6000828F90E080E0D80190962C919097281773
:101A70001906A9F0A4F05C96ED91FC91E80FF91F0E
:101A800010820196F0CFDC018D919C911197009707
:101A9000D1F7ED92FC929CCF8F5F80A3ADCFF80180
:101AA000EE5AFF4F8FEF8083319680831093E401CD
:101AB0000093E301CA56DF4F0FB6F894DEBF0FBEA6
:101AC000CDBFDF91CF911F910F91FF90EF90DF90ED
:101AD000CF900895CF93DF9300D000D01F92CDB761
:101AE000DEB7789484B5826084BD84B5816084BD9E
:101AF00085B5826085BD85B5816085BD80916E00AC
:101B0000816080936E0010928100809181008260DC
:101B10008093810080918100816080938100809119
:101B2000800081608093800080919100826080932A
:101B3000910080919100816080939100809190004C
:101B40008160809390008091C10084608093C10087
:101B50008091C10082608093C1008091C10081604A
:101B60008093C1008091C30081608093C300809105
:101B7000C00082608093C0008091C2008160809329
:101B8000C20080917A00846080937A0080917A000C
:101B9000826080937A0080917A00816080937A00DD
:101BA00080917A00806880937A0010927001109280
:101BB0006D0110926C018091D70081608093D700F5
:101BC00080EA8093D80089B5806189BD89B582603B
:101BD00089BD09B400FEFDCF61E070E080E090E0D7
:101BE0000E9431048091D8008F7C80618093D8005E
:101BF0008091E000807F8093E0008091E1008E7E04
:101C00008093E1008DE08093E200559A209A0E9433
:101C10004E0161E08DE00E944F03E091E301F091FD
:101C2000E40184B1806784B985B1806785B98AB1E0
:101C300083608AB98BB183608BB98FEF8083818396
:101C400020E03CEF35A324A380E094E097A386A393
:101C500031A720A793A782A7168ECF0102960E94D4
:101C60000A0783E18093CB0182E18093CC0110923B
:101C7000D00183E10E944E018091CC010E944E016F
:101C800061E08091CC010E944F03E5E4F1E0849192
:101C9000EFE9EE2EE1E0FE2EF701C49000E811E03E
:101CA000F801D490DD2009F415C181110E940303CD
:101CB000ED2DF0E0EE0FFF1FEA5DFE4FA591B49110
:101CC0008C91C82281E009F480E0D82ECFB6F89438
:101CD00080916E01811122C0F8010491F701E49016
:101CE000E02FF0E0EE0FFF1FEF59FE4FA591B491EA
:101CF0008C91E82221F461E081E10E944F0381E1AF
:101D00000E944E018CB580618CBD8CB580648CBD09
:101D10008FE00E944E0180E10E944E0180916E0191
:101D20008F5F80936E01CFBE8091CC01813121F015
:101D30006D2D81E10E944F038FEF9FEF9093D701AC
:101D40008093D60181E08093CF012091CB019091C7
:101D5000CC01291301C080E08093D10164E670E0DA
:101D600080E090E00E9431046AE385E00E94F8037D
:101D70006EE086E00E94F8036FE184E00E94F803C1
:101D800088E592E09093D3018093D20180EB94E0B8
:101D90009093D5018093D40181E0898382E08A8386
:101DA00083E08B8384E08C8380E48D8325E0AE0127
:101DB0004F5F5F4F6BE281E090E00E947D0363E044
:101DC0008CE10E94F80367E08DE10E94F80320E0B7
:101DD00050E040E062EE81E090E00E947D0320E070
:101DE00050E040E061EE81E090E00E947D0360E71A
:101DF00087E00E94F8030E946304882309F46CC002
:101E000060E08DE00E944F03C12C34E0D32EA12C62
:101E10004CEFB42E50E0852E50E0952E8091D101EC
:101E2000811125C00E940C040091D8011091D901A4
:101E30002091DA013091DB01AB01BC01401B510B59
:101E4000620B730B8091D4019091D501B0E0A0E0BA
:101E5000481759076A077B07B0F10E940C0460938A
:101E6000D8017093D9018093DA019093DB0180E06F
:101E70000E94E5038B3011F00E94630487E00E940A
:101E8000E50390E09595879587708130E1F421E036
:101E9000AE014F5F5F4F60E690E080E00E947D03FF
:101EA0008981813270F120E050E040E062EE81E013
:101EB00090E00E947D0387E00E94E503682F606741
:101EC00087E00E94F8038114910409F4A7CF0E94CF
:101ED0000000A4CFD12CFACE61E08DE00E944F0328
:101EE0006AEF70E080E090E00E94310460E08DE0F5
:101EF0000E944F036AEF70E080E090E00E9431049E
:101F0000EBCF882301F361E08DE00E944F0321E0D5
:101F1000AE014F5F5F4F60E690E080E00E947D037E
:101F200029814CED51E061E690E080E00E947D0364
:101F300087E00E94E50386FF05C0682F606487E0A4
:101F40000E94F803E091E301F091E4018091E10146
:101F50008083E090E301F090E401F7018081D701F4
:101F6000AE5ABF4F9C91A7014D5A5F4F981307C0BF
:101F7000FA012081F7019181291709F46AC08C9335
:101F8000F7019181FA01908387010E5F1F4FF701DE
:101F9000968D82FF10C0B382A282992319F0C801E6
:101FA0000E940A076FE0C8010E94AB086DE0C801FB
:101FB0000E94860811C083FF24C0D382C282992365
:101FC00019F0C8010E940A076FE0C8010E94860844
:101FD0006DE0C8010E94AB08F7019081868D90FFEB
:101FE0001CC0B582A482882319F0C8010E940A0788
:101FF0006CE0C8010E94AB086EE0C8010E94860830
:102000001DC013821282992319F0C8010E940A0789
:102010006FE0C8010E948608C9CF91FF1FC0D5821A
:10202000C482882319F0C8010E940A076CE0C80125
:102030000E9486086EE0C8010E94AB08F70180810B
:1020400060E084FD17C0C8010E948608C8010E9494
:102050000A0760E08DE00E944F03E0CE15821482F3
:10206000882319F0C8010E940A076CE0C8010E9489
:102070008608C2CFC8010E94AB08E8CF052E97FBA7
:102080001EF400940E94551057FD07D00E9468105E
:1020900007FC03D04EF40C945510509540953095A4
:1020A00021953F4F4F4F5F4F0895909580957095C4
:1020B00061957F4F8F4F9F4F08950E948A10A59F73
:1020C000900DB49F900DA49F800D911D1124089533
:1020D000A1E21A2EAA1BBB1BFD010DC0AA1FBB1F2C
:1020E000EE1FFF1FA217B307E407F50720F0A21B9E
:1020F000B30BE40BF50B661F771F881F991F1A940B
:1021000069F760957095809590959B01AC01BD0134
:10211000CF010895A29FB001B39FC001A39F700D8E
:10212000811D1124911DB29F700D811D1124911DDF
:10213000089597FB072E16F4009407D077FD09D079
:102140000E94B31007FC05D03EF4909581959F4FF7
:102150000895709561957F4F0895EE0FFF1F0590CC
:10216000F491E02D0994AA1BBB1B51E107C0AA1FE3
:10217000BB1FA617B70710F0A61BB70B881F991F28
:102180005A95A9F780959095BC01CD0108950F93BC
:102190001F93CF93DF938230910510F482E090E09B
:1021A000E091E701F091E80130E020E0B0E0A0E04C
:1021B000309799F42115310509F44AC0281B390BD1
:1021C00024303105D8F58A819B816115710589F12B
:1021D000FB0193838283FE0111C040815181028102
:1021E000138148175907E0F04817590799F41097D9
:1021F00061F012960C93129713961C933296CF01AE
:10220000DF91CF911F910F9108950093E7011093F3
:10221000E801F4CF2115310551F04217530738F08A
:10222000A901DB019A01BD01DF01F801C1CFEF0176
:10223000F9CF9093E8018093E701CDCFFE01E20F43
:10224000F31F819391932250310939832883D7CF8B
:102250002091E5013091E601232B41F420911501F5
:10226000309116013093E6012093E501209113018E
:10227000309114012115310541F42DB73EB740913D
:10228000170150911801241B350BE091E501F091E5
:10229000E601E217F307A0F42E1B3F0B28173907BE
:1022A00078F0AC014E5F5F4F2417350748F04E0FB2
:1022B0005F1F5093E6014093E501819391939FCF77
:1022C000F0E0E0E09CCFCF93DF930097E9F0FC01D2
:1022D000329713821282A091E701B091E801ED01DB
:1022E00030E020E01097A1F420813181820F931F0C
:1022F0002091E5013091E6012817390709F061C006
:10230000F093E601E093E501DF91CF910895EA01B2
:10231000CE17DF07E8F54A815B819E014115510523
:10232000B1F7E901FB83EA8349915991C40FD51FA5
:10233000EC17FD0761F4808191810296840F951F4F
:10234000E90199838883828193819B838A83F0E06A
:10235000E0E012968D919C9113970097B9F52D911D
:102360003C911197CD010296820F931F2091E501B8
:102370003091E6012817390739F6309751F5109258
:10238000E8011092E701B093E601A093E501BCCF0C
:10239000D383C28340815181840F951FC817D90709
:1023A00061F44E5F5F4F88819981480F591F5183B7
:1023B00040838A819B81938382832115310509F0B3
:1023C000B0CFF093E801E093E7019ECFFD01DC017F
:1023D000C0CF13821282D7CFFB01DC0102C0019073
:0E23E0000D9241505040D8F70895F894FFCF69
:1023EE0000C18081000000FFFFFFFF00E100000040
:1023FE000000000000E9018000000000007D05F9EA
:10240E0005BB05A0050000000097016705AC02ADF5
:08241E0001FA01B801D601002A
:00000001FF
