:100000000C94D8000C9400010C9400010C94000195
:100010000C9400010C9400010C9400010C9400015C
:100020000C9400010C9400010C943E050C94AD0559
:100030000C9400010C9400010C9400010C9400013C
:100040000C9400010C9400010C9400010C9400012C
:100050000C9400010C9400010C9400010C94DF0737
:100060000C9400010C9400010C9400010C9400010C
:100070000C9400010C9400010C9400010C940001FC
:100080000C9400010C9400010C9400010C940001EC
:100090000C9400010C9400010C9400010C940001DC
:1000A0000C9400010C9400010C940001080B000258
:1000B0000202000009040000010202000005240001
:1000C0001001052401010104240206052406000193
:1000D0000705810310004009040100020A00000026
:1000E00007050202400000070583024000000403E8
:1000F000090412010002EF02014066666706000172
:1001000001020301526574726F5553424A6F79734D
:100110007469636B00526574726F5553424A6F790C
:10012000737469636B00000000002300260029003F
:100130002C002F000000000200090F000003040142
:10014000000C0000000000000000000000000000A3
:1001500000000000000000250028002B002E0031C8
:100160000000000000240027002A002D00300004B9
:10017000040404040304050202020204030202024E
:100180000206060606060604040202020404040827
:10019000020110408040102040804080080204018D
:1001A00080402010020110801020404020002908CB
:1001B00011241FBECFEFDAE0DEBFCDBF11E0A0E01B
:1001C000B1E0E8E3F6E102C005900D92A632B10776
:1001D000D9F721E0A6E2B1E001C01D92A33CB2072D
:1001E000E1F710E0C8EDD0E004C02197FE010E94C5
:1001F000140BC73DD107C9F70E9453080C941A0B82
:100200000C940000382F28E080E0880FE0919C01DA
:10021000F0919D0140819091A201492309F08F5FE7
:10022000E0919A01F0919B014081942B908337FFDC
:1002300009C0E0919801F091990190814091A2014B
:10024000942B9083E0919E01F0919F0190814091C9
:10025000A301942B9083E0919E01F0919F01408136
:100260009091A301909594239083E0919801F0914F
:10027000990140819091A201909594239083E091FF
:100280009A01F0919B0140819091A2019095942355
:100290009083330F215009F0B8CF089590E0FC010E
:1002A000E257FE4F249181599E4FFC01849188238F
:1002B00099F090E0880F991FFC01EF59FE4FA5912E
:1002C000B491FC01ED5AFE4F859194918FB7F8944B
:1002D000EC91E22BEC938FBF0895FC0180914501D6
:1002E000882311F13FB7F89482E08093E9002091D0
:1002F000F200822F90E01816190614F481E090E0C5
:10030000882339F0289844E6409344014091F10055
:100310004083222339F02091F200211103C02BE603
:100320002093E8003FBF08958FEF9FEF08952FB708
:10033000F89483E08093E9009091E800892F80721F
:1003400095FF04C09091F20080E4891B2FBF0895AF
:10035000CF93DF931F92CDB7DEB76983DC01ED91B8
:10036000FC910280F381E02D41E050E0BE016F5F1F
:100370007F4F09950F90DF91CF91089583E080938F
:10038000E9008091F200882319F08AE38093E80065
:1003900008950E94970190E00895CF93DF931F92F4
:1003A000CDB7DEB7FC018485958597FD08C02FEF9A
:1003B0003FEF358724870F90DF91CF910895CE01CD
:1003C00001960E946D01019719F4898190E0F3CFA5
:1003D0008FEF9FEFF0CF0F931F93CF93DF931F9279
:1003E000CDB7DEB78C01FC018485958597FF0BC0E6
:1003F000CE0101960E946D01019771F4898190E010
:10040000F80195878487F801848595850F90DF91A1
:10041000CF911F910F9108958FEF9FEFF1CFFC01C6
:100420008485958597FD0BC09FB7F89482E08093F3
:10043000E9008091F2009FBF90E0019608959FB778
:10044000F89482E08093E9008091F2009FBF90E0F1
:10045000089540913D0150913E0120913B01309122
:100460003C0142175307B4F49091E8009570E1F312
:100470009091E80092FD19C08093F10080913D01B8
:1004800090913E0101968F739927892B19F48EEF75
:100490008093E80080913D0190913E0101969093F8
:1004A0003E0180933D0181E0089580E00895EF9240
:1004B000FF920F931F93CF93DF93F82E192FE62E01
:1004C000042F81E0860F880F0E94290283E00E949A
:1004D0002902CF2DD12FEC0EFD2EF11CCE15DF05FC
:1004E000B9F007FF13C0FE0184910E942902182F62
:1004F00080E00E942902812321968111EFCFDF91B4
:10050000CF911F910F91FF90EF9008958881EDCFCB
:1005100081E0F5CFDF92EF92FF920F931F93CF937D
:10052000DF93D82E8A01EB017B01E40EF51ECE1578
:10053000DF0559F0D7FE12C0FE0184910E94290206
:1005400021968111F4CF0FEF1FEFC801DF91CF91FA
:100550001F910F91FF90EF90DF9008958881EECF6B
:10056000615030F02091F100FC0120830196F8CF1A
:10057000289884E680934401089580913301811185
:100580000DC082E080932F0184E0809330011092AF
:1005900032011092310181E0809333018FE291E0CA
:1005A00008950F931F93CF93DF931F92CDB7DEB7BC
:1005B00082E0898342E450E06CEA70E080E80E94C7
:1005C0008A020E94BD02DC0112960D911C91011558
:1005D000110589F0D801ED91FC910280F381E02DA5
:1005E000BE016F5F7F4FC801099597FD04C0F801F8
:1005F00000851185ECCF89810F90DF91CF911F91FC
:100600000F91089581508F3008F047C0E82FF0E037
:10061000E45FFC4F0C94140B29032D031B032103EF
:1006200025034D034D034D03300336033A033E03C8
:1006300044034D034803809180008F7780938000AE
:100640000895809180008F7DF9CF80918000877F11
:10065000F5CF84B58F7784BD089584B58F7DFBCFAA
:10066000809190008F778093900008958091900002
:100670008F7DF9CF80919000877FF5CF8091C0006A
:100680008F778093C00008958091C0008F7DF9CF4F
:100690008091C200877F8093C20008951F93CF93FB
:1006A000DF93282F30E0F901EC5CFE4F8491F901D3
:1006B000E257FE4FD491F901E159FE4FC491CC238A
:1006C000A9F0162F81110E940203EC2FF0E0EE0F2B
:1006D000FF1FED5AFE4FA591B4918FB7F894EC919E
:1006E000111108C0D095DE23DC938FBFDF91CF912D
:1006F0001F910895DE2BF8CFDF92EF92FF920F93B8
:100700001F93CF93DF937C01C62F142F052FD22E7A
:10071000F8948091A50160E0882379F18091A1018E
:100720000E944E038BEC97E00197F1F78C2F0E940B
:100730000201C12FD02F8E010D0D111DC017D10741
:1007400051F089910E940201E114F104B9F7FE0110
:1007500031978083F3CF61E08091A1010E944E0325
:100760008BEC97E00197F1F77894DF91CF911F918F
:100770000F91FF90EF90DF9008958091A1010E946A
:100780004E0380E58CBD1DBCCEBD00000DB407FE40
:10079000FDCF8EB5812FE12FF02F9E2F981B9D1539
:1007A00068F490819EBD00000DB407FEFDCF9EB59C
:1007B000E114F10409F490833196EFCF61E0809168
:1007C000A1010E944E03D0CFCF93DF931F92CDB7EC
:1007D000DEB721E0AE014F5F5F4F682F90E080E011
:1007E0000E947C0389810F90DF91CF910895CF9370
:1007F000DF931F92CDB7DEB76983682F606221E077
:10080000AE014F5F5F4F81E090E00E947C030F904C
:10081000DF91CF9108950F931F93CF93DF931092A1
:10082000A401DBE503E210E0D15009F447C087E101
:100830000E94E40384FD44C08091A601882369F0EE
:1008400061E08091A0010E944E03C8010197F1F779
:1008500060E08091A0010E944E038091A7019091D9
:10086000A8018230910538F0880F991F880F991FD1
:1008700005970197F1F787E00E94E403C82FC07243
:1008800085FF05C060E287E00E94F703CDCF84FFBB
:10089000CBCF20E050E040E061EE81E090E00E94AC
:1008A0007C0360E187E00E94F70381E08093A4016C
:1008B0008C2FDF91CF911F910F910895C0E0F5CF5C
:1008C000C1E0F3CF3FB7F89480912B0190912C01B8
:1008D000A0912D01B0912E0126B5A89B05C02F3FF8
:1008E00019F00196A11DB11D3FBFBA2FA92F982F56
:1008F0008827BC01CD01620F711D811D911D42E051
:10090000660F771F881F991F4A95D1F708958F9218
:100910009F92AF92BF92CF92DF92EF92FF924B01E4
:100920005C010E9462046B017C010E9462046C19EC
:100930007D098E099F09683E734081059105A8F3E2
:1009400021E0821A9108A108B10888EEC80E83E060
:10095000D81EE11CF11C81149104A104B10429F7F3
:10096000FF90EF90DF90CF90BF90AF909F908F90CF
:1009700008958F929F92AF92BF92CF92DF92EF92A3
:10098000FF920F931F93CF93DF936C017B018A013A
:1009900080910B01882309F45CC080914501882374
:1009A00009F457C08091430180FF05C08091E000A9
:1009B00082608093E000E801B12C8AEFA82E93E0DA
:1009C000892E2AE3922E209711F4BB20D9F10E94A0
:1009D000970181110AC0AA94AA20D9F161E070E0C0
:1009E00080E090E00E948704EECF8C171D0611F086
:1009F0000CF08C2F9FB7F8948092E9002091E800CA
:100A000025FD02C09FBFDFCF282F30E0C21BD30BD4
:100A1000F701815020F041914093F100FACFE20EAE
:100A2000F31EBB2021F09092E800B12CEBCF809117
:100A3000E80085FDE7CF9092E800BB24B3942097AF
:100A400009F3F3CF5D9884E68093420110161106F6
:100A50003CF081E090E0F6019383828310E000E0B7
:100A6000C801DF91CF911F910F91FF90EF90DF9020
:100A7000CF90BF90AF909F908F9008951F920F924C
:100A80000FB60F9211248F939F938091E100909164
:100A9000E100937F9093E10083FF0FC01092E90083
:100AA00091E09093EB001092EC0092E39093ED00B4
:100AB0001092450198E09093F00082FF22C093E0ED
:100AC0009093E9009091F200992319F09AE39093A2
:100AD000E80090914201992341F090914201915098
:100AE00090934201911101C05D9A90914401992324
:100AF00041F090914401915090934401911101C0B3
:100B0000289A84FF18C08091E2008E7E81608093D5
:100B1000E2008091E1008F7E8093E10080914301AB
:100B20008E7E8061809343019F918F910F900FBEC5
:100B30000F901F90189580FFF7CF8091E2008E7E76
:100B400080618093E2008091E1008E7E8093E100DD
:100B5000809143018E7E8160E5CF1F920F920FB688
:100B60000F921124CF92DF92EF92FF920F931F9377
:100B70002F933F934F935F936F937F938F939F93A5
:100B8000AF93BF93EF93FF93CF93DF93CDB7DEB7D0
:100B90006C97DEBFCDBF1092E9008091E80083FF23
:100BA00025C068E0CE0145960E94B00282EF809396
:100BB000E8008D8987FF39C09091E80090FFFCCF55
:100BC000982F907609F034C19E894F89588D2F89CE
:100BD000F88C911131C0803861F58091400180938B
:100BE000F1001092F1008EEF8093E8006C960FB642
:100BF000F894DEBF0FBECDBFDF91CF91FF91EF9193
:100C0000BF91AF919F918F917F916F915F914F9124
:100C10003F912F911F910F91FF90EF90DF90CF9018
:100C20000F900FBE0F901F9018959EEF9093E800C5
:100C3000C7CF1092F100D5CF913059F48111D3CFA5
:100C40004130510581F6809140018D7F80934001B4
:100C5000CACF933049F48111C6CF4130510519F6FE
:100C6000809140018260F2CF953041F48091E8009C
:100C700080FFFCCF20682093E300B5CF963009F0C9
:100C8000A9C00B8D1C8D22E01092E90010923E014C
:100C900010923D01F2122EC010923C0110923B01C5
:100CA0000E94D1021F8299E09983FA8291E09E838B
:100CB00090EA98879AEF998720913D0130913E0103
:100CC000275F3F4F3C832B838D831092E900109266
:100CD0003E0110923D0110933C0100933B0149E01D
:100CE00050E0BE016F5F7F4F80E00E948A020E9449
:100CF000D10279CF10933C0100933B010E94BD02C9
:100D0000DC0112960D911C910115110509F451C1D8
:100D1000D801ED91FC910480F581E02DBE016B5E60
:100D20007F4FC8010995009709F03EC1F801008581
:100D30001185EACFF3E0FF120EC08F89882309F4F2
:100D400040C0823061F440E860E185E191E00E94BA
:100D50005702811148CF81E28093EB0047CF813069
:100D600029F440E860E184E091E0F1CF833099F725
:100D70000E94BD02DC011296ED90FC908E010F5F87
:100D80001F4F6801E114F10479F0D701ED91FC9156
:100D90000680F781E02DB801C7010995080F111DE4
:100DA000F701E084F184EECFD8011C92F6010190A6
:100DB0000020E9F73197BF016C197D0940E0C601B9
:100DC000C6CF6EEE70E0FB01449150E080E80E94D7
:100DD0008A0209CF973009F4BECF983021F481E020
:100DE0008093F10000CF993009F0FDCE837009F0B7
:100DF000B2CFEDE0F1E081E031E096E321912223F2
:100E000071F08093E9003093EB00DF0111972C9192
:100E10002093EC009093ED008F5F873079F78EE799
:100E20008093EA001092EA008F8980934501DBCE1F
:100E30008B8D9C8D1092E90010923E0110923D0125
:100E400090933C0180933B01898D811192C08E89E2
:100E50009D89913A49F4813209F07DCF47E050E015
:100E600064E071E080E0B3CF913209F074CF833257
:100E700069F48F89988DB0E0A0E080930001909391
:100E80000101A0930201B0930301ADCE803269F459
:100E90008091E80082FFFCCF67E084E091E00E944F
:100EA000B0028BEF8093E8009ECE823209F09BCE99
:100EB0008F8980930B01EEEFFFE7859194918B3F33
:100EC0009C4D51F1E0E0F8E0809104019091050122
:100ED000A0910601B0910701803B9440A105B105A6
:100EE000F1F480910B0180FD1AC0EE3F8AE0F80713
:100EF00089F587E797E791838083809160008093ED
:100F00003F0188E19BE00FB6F894A89580936000BC
:100F10000FBE9093600067CEEEEFFAE0D5CF8081F0
:100F200091818737974709F05ECEA8958091600040
:100F300088618093600080913F0180936000EE3F64
:100F40002AE0F20789F08091FE0A9091FF0A9183CE
:100F5000808349CE808191818737980751F29093A1
:100F6000FF0A8093FE0AC5CF1092FF0A1092FE0A74
:100F70003ACE0E94BD02DC0112960D911C91011522
:100F8000110509F4E8CED801ED91FC910190F081B2
:100F9000E02DBE016B5E7F4FC8010995811123CE04
:100FA000F80100851185EBCF181619060CF41BCE3D
:100FB000D2CEF1E0FF12BECE62EF70E004CF1F92FE
:100FC0000F920FB60F9211242F933F938F939F93FD
:100FD000AF93BF938091270190912801A09129019F
:100FE000B0912A013091260123E0230F2D3758F5C7
:100FF0000196A11DB11D2093260180932701909396
:101000002801A0932901B0932A0180912B0190918E
:101010002C01A0912D01B0912E010196A11DB11DB1
:1010200080932B0190932C01A0932D01B0932E015E
:10103000BF91AF919F918F913F912F910F900FBED4
:101040000F901F90189526E8230F0296A11DB11D41
:10105000D2CFE6E4F1E01382128288EE93E0A0E0C2
:10106000B0E084839583A683B78387E191E0918381
:1010700080838FEF9FEF95878487E6E9F1E0968B79
:10108000858B138E148E15A216A217A210A611A678
:1010900012A613A614A681E0858F868F178E10A244
:1010A00011A212A20895CF93DF9300D000D01F9217
:1010B000CDB7DEB7789484B5826084BD84B5816095
:1010C00084BD85B5826085BD85B5816085BD809113
:1010D0006E00816080936E0010928100809181008B
:1010E0008260809381008091810081608093810083
:1010F0008091800081608093800080919100826067
:101100008093910080919100816080939100809103
:1011100090008160809390008091C10084608093F2
:10112000C1008091C10082608093C1008091C100A4
:1011300081608093C1008091C30081608093C3006F
:101140008091C00082608093C0008091C200816065
:101150008093C20080917A00846080937A008091AD
:101160007A00826080937A0080917A008160809317
:101170007A0080917A00806880937A00109245010D
:1011800010924001109243018091D70081608093BA
:10119000D70080EA8093D80089B5806189BD89B580
:1011A000826089BD09B400FEFDCF61E070E080E09F
:1011B00090E00E9487048091D8008F7C80618093AA
:1011C000D8008091E000807F8093E0008091E10072
:1011D0008E7E8093E1008DE08093E200559A209A04
:1011E00081E10E944E0161E081E10E944E0384B1E1
:1011F000806784B985B1806785B98AB183608AB90F
:101200008BB183608BB98AB18C698AB98BB18C69D7
:101210008BB987B187B988B188B961E085E00E9450
:101220004E0380B380BB81B381BB61E085E10E9446
:101230004E0361E084E10E944E038FEF8093B10181
:101240008093B201F090B30183E18093A00182E129
:101250008093A1011092A50183E10E944E0180912B
:10126000A1010E944E0161E08091A1010E944E0304
:10127000E5E4F1E08491BFE9CB2EB1E0DB2EF6018D
:10128000B49000E811E0F801E490EE2009F499C16F
:1012900081110E940203EE2DF0E0EE0FFF1FEA5DC8
:1012A000FE4FA591B4918C91B82281E009F480E0C1
:1012B000E82EBFB6F89480914101811122C0F80157
:1012C0000491F601C490E02FF0E0EE0FFF1FEF59FC
:1012D000FE4FA591B4918C91C82221F461E081E187
:1012E0000E944E0381E10E944E018CB580618CBD4D
:1012F0008CB580648CBD8FE00E944E0180E10E941D
:101300004E01809141018F5F80934101BFBE80916A
:10131000A101813121F06E2D81E10E944E038FEFFA
:101320009FEF9093AC018093AB0181E08093A40187
:101330002091A0019091A101291301C080E0809328
:10134000A60164E670E080E090E00E9487046AE312
:1013500085E00E94F7036EE086E00E94F7036FE1EC
:1013600084E00E94F70388E592E09093A8018093BF
:10137000A70180EB94E09093AA018093A90181E0FA
:10138000898382E08A8383E08B8384E08C83FD827F
:1013900025E0AE014F5F5F4F6BE281E090E00E947D
:1013A0007C0363E08CE10E94F70367E08DE10E941B
:1013B000F70320E050E040E062EE81E090E00E9420
:1013C0007C0320E050E040E061EE81E090E00E948C
:1013D0007C0360E787E00E94F7030E940B0460E053
:1013E0008091A0010E944E036BE080E00E94F70311
:1013F00061E08091A0010E944E0365E070E080E012
:1014000090E00E94870480E00E94E4038B3009F0A2
:10141000DAC060E081E10E944E030BE31CE9DD24A9
:10142000D39440E4E42EF12C52E0C52E63E0B62EB6
:1014300024E0A22E30E4932E83B129B182958F70DF
:10144000F8E02F9F90011124822B806E809590915F
:10145000B10130E0981719F08093B10131E029B162
:1014600068E027FF60E046B18FB12C712695269584
:10147000407450E05595479555954795242B8073BA
:10148000880F822B862B806880959091B2019817E7
:1014900009F4AEC08093B201C8010197F1F7309111
:1014A000B1018091B9012091B201381305C080913A
:1014B000BA01281709F4C0CF5D988091B5019091C9
:1014C000B601A091B701B091B8010196A11DB11D5F
:1014D0008093B5019093B601A093B701B093B80182
:1014E0003093B9012093BA018091AB019091AC0186
:1014F00080349105D9F0F092AC01E092AB01D98231
:10150000CA82BB82AC829D8225E0AE014F5F5F4FF5
:1015100060E381E090E00E947C0325E0AE014F5F34
:101520005F4F6AE281E090E00E947C0380E00E94CD
:10153000E4038A3079F060E08091A0010E944E03BC
:101540006AE080E00E94F70365E070E080E090E0F0
:101550000E94870487E10E94E403882E81FF08C06F
:1015600020E050E040E062EE81E090E00E947C03E9
:1015700085FC0E940B0460E387E00E94F70327E0EC
:1015800044EB51E060EA81E090E00E947C030E941D
:101590000B044091BF015091C0016091C101709155
:1015A000C20181112FC04F5F5F4F6F4F7F4F40933C
:1015B000BF015093C0016093C1017093C2015D9A55
:1015C0003BCFE12C76CE61E081E10E944E036AEFD1
:1015D00070E080E090E00E94870460E081E10E947A
:1015E0004E036AEF70E080E090E00E948704EBCF4A
:1015F000311152CF80E090E0892B09F419CF0E947D
:10160000000016CF413151056105710520F060E001
:1016100081E10E944E031092BF011092C00110920E
:10162000C1011092C201CBCFEE0FFF1F0590F491C4
:08163000E02D0994F894FFCFAE
:10163800FFFFFFFF00E100000000000000C1808103
:1016480000000000000000A801B904C901BE010F94
:0616580002CD01EB0100D0
:00000001FF
